:020000020000FC
:0200000016C028
:10002C0023C008E00EBF0FEF0DBF00C0209A219A2D
:10003C00229A239A249A259A269A279A389A3C9A95
:10004C003D9A40E070E08FE08093890082E48093D9
:10005C00880080E0809380008DE08093810082E0B6
:10006C0080936F007894FFCF439545B973957530A5
:10007C0041F07A3051F07F3061F0743171F00C94B2
:10008C00580000E108B90C94580000E208B90C942F
:10009C00580000E308B90C94580000E008B970E06F
:0C00AC000C94580082E080931600189518
:00000001FF
