:100000000C944B000C9468000C9468000C946800ED
:100010000C9468000C9468000C9468000C946800C0
:100020000C9468000C9468000C9468000C946800B0
:100030000C9468000C94A6040C9468000C9468005E
:100040000C9468000C9468000C9468000C94680090
:100050000C9468000C9468000C9468000C94680080
:100060000C9468000C946800084AD73B3BCE016EA4
:1000700084BCBFFDC12F3D6C74319ABD56833DDAFF
:100080003D00C77F11BED9E4BB4C3E916BAAAABE0E
:10009000000000803F0011241FBECFEFD8E0DEBF7C
:1000A000CDBF11E0A0E0B1E0E4EEF4E102C00590C4
:1000B0000D92AC36B107D9F721E0ACE6B1E001C052
:1000C0001D92A037B207E1F70E94C1020C94700A9A
:1000D0000C9400001092B90088E48093B800089551
:1000E00094EA9093BC00ECEBF0E090819923ECF75C
:1000F0009091B900987F983011F09031A1F48093DD
:10010000BB0084E88093BC00ECEBF0E080818823A6
:10011000ECF79091B900987F983139F081E09034F4
:1001200029F480E0089581E0089580E00895CF9358
:10013000DF93ECEBF0E024EAA9EBB0E0CBEBD0E00E
:1001400034E844E9208390819923ECF79C91987FCF
:10015000983011F09031B1F78883308390819923E2
:10016000ECF79C91987F903211F0983529F44083F8
:10017000908194FDFDCFE6CFDF91CF9108950E944D
:100180007000089584E98093BC00ECEBF0E080817E
:1001900084FDFDCF08958093BB0084E88093BC006C
:1001A000ECEBF0E080818823ECF79091B900987F28
:1001B00081E0983209F480E0089584E88093BC00DF
:1001C000ECEBF0E080818823ECF78091BB00089590
:1001D0000F931F93CF93DF93C82FD62F8A010E94CE
:1001E00097008D2F0E94CB0081E08C0F0E94BF00F2
:1001F0000E94DD00F80180830E94C200DF91CF9150
:100200001F910F910895CF93DF93EC01AC0163E44C
:1002100080ED0E94E800AE014F5F5F4F64E480ED27
:100220000E94E800DF91CF910895CF93DF93EC0116
:10023000AC0165E480ED0E94E800AE014F5F5F4FC6
:1002400066E480ED0E94E800DF91CF910895CF939E
:10025000DF93EC01AC0167E480ED0E94E800AE01A1
:100260004F5F5F4F68E480ED0E94E800DF91CF911F
:1002700008950F931F93CF93DF9300D0CDB7DEB7D0
:100280008C01CE0101960E940301898190E0982F94
:1002900088272A81822BF80191838083CE010196E1
:1002A0000E941501898190E0982F88272A81822B4E
:1002B000F80193838283CE0101960E942701298150
:1002C00030E0322F22278A81282BF80135832483BE
:1002D0000F900F90DF91CF911F910F910895CF93C1
:1002E000DF93EC01AC016BE380ED0E94E800AE010E
:1002F0004F5F5F4F6CE380ED0E94E800DF91CF918C
:100300000895CF93DF93EC01AC016DE380ED0E9483
:10031000E800AE014F5F5F4F6EE380ED0E94E800A2
:10032000DF91CF910895CF93DF93EC01AC016FE3A0
:1003300080ED0E94E800AE014F5F5F4F60E480ED0A
:100340000E94E800DF91CF9108950F931F93CF9300
:10035000DF9300D0CDB7DEB78C01CE0101960E94AD
:100360006F01898190E0982F88272A81822BF801DC
:1003700091838083CE0101960E948101898190E062
:10038000982F88272A81822BF80193838283CE01BC
:1003900001960E949301298130E0322F22278A8121
:1003A000282BF801358324830F900F90DF91CF9194
:1003B0001F910F910895CF93DF93D62FC42F0E94E2
:1003C00097008D2F0E94CB008C2F0E94CB000E94A3
:1003D000C200DF91CF91089540E06BE680ED0E946E
:1003E000DB0141E06AE180ED0E94DB0140E16BE16D
:1003F00080ED0E94DB0140E06CE180ED0E94DB01BA
:1004000040E068E380ED0E94DB0140E068E680EDBB
:100410000E94DB0108951092C50087E68093C40016
:10042000E0ECF0E080818D7F808386E08093C200E5
:1004300088E98093C1000895E0ECF0E0908195FF99
:10044000FDCF8093C6000895CF93DF93EC018881A0
:10045000882331F021960E941C0289918111FBCFE3
:10046000DF91CF9108950F931F93CF93DF93CDB773
:10047000DEB72A970FB6F894DEBF0FBECDBF9F93AD
:100480008F937F936F9380E091E09F938F931F9260
:100490008AE08F938E010F5F1F4F1F930F930E946F
:1004A0008B07C8010E9424020FB6F894DEBF0FBE6E
:1004B000CDBF2A960FB6F894DEBF0FBECDBFDF9139
:1004C000CF911F910F91089510928000EFE6F0E018
:1004D000808181608083E1E8F0E0808182608083B8
:1004E00080818A7F808308958F929F92AF92BF927E
:1004F000CF92DF92EF92FF92CF93DF93EC01F894CB
:100500004091840080918500C0906C01D0906D0175
:10051000E0906E01F0906F0150E0582BBA0180E03E
:1005200090E00E9434062DEB37E346E055E30E944D
:100530001A074B015C012DEB37E346E05DE3C70191
:10054000B6010E941A079B01AC01C501B4010E94CB
:10055000DF04688379838A839B8310926C011092F5
:100560006D0110926E0110926F017894DF91CF911E
:10057000FF90EF90DF90CF90BF90AF909F908F90C3
:100580000895CF93DF93CDB7DEB7A0970FB6F89459
:10059000DEBF0FBECDBF78940E940B020E946A009E
:1005A000259A80ED0E9470002D9A2FEF83EC99E040
:1005B000215080409040E1F700C000002D980E943B
:1005C000EC010E946402CE0101960E94A501212C3B
:1005D000312C1A8E198E1D8A1E8A1F8A188E3C8E07
:1005E0002B8ECE010D960E947402CE0101960E94C0
:1005F000A501CE0107960E9439016B857C85072EE7
:10060000000C880B990B0E94360620EE3EE245E670
:1006100052E40E941A0720E030E04AE754E40E94C6
:100620001A0720E030E040E058E30E941A07698B87
:100630007A8B8B8B9C8B8D849E84AF84B8886F81E2
:100640007885072E000C880B990B0E9436062FE642
:1006500032E143E852E40E94C205A50194010E94E0
:100660001A079B01AC01C301B2010E94DF042B01F8
:100670003C0169857A85072E000C880B990B0E9436
:1006800036062FE632E143E852E40E94C2059B01A0
:10069000AC01C501B4010E941A079B01AC01C7015E
:1006A000B6010E94DE046B017C0129803A800B8137
:1006B0001C816D817E819101332024F42227332710
:1006C00022193309C801112324F488279927801B94
:1006D000910B280F391FCB01772324F48827992702
:1006E000861B970B820F931F813090420CF4EEC053
:1006F000072E000C880B990B0E9436064B015C01FB
:10070000B801110F880B990B0E943606A5019401C0
:100710000E945E056D8F7E8F8F8F98A328E431EE47
:100720004AE75FE3C301B2010E941A072B013C01B3
:1007300020E030E044E353E46D8D7E8D8F8D98A1F1
:100740000E941A072BED3FE049E450E40E94C205E5
:100750002AE037ED43EA5CE30E941A079B01AC01F3
:10076000C301B2010E94DF042B013C0120E030E014
:1007700048EC51E40E940D0718160CF4DBC020E091
:1007800030E048EC51ECC301B2010E94BD05882362
:10079000B4F4898D9A8D892B41F520E030E040E852
:1007A0005FE36D897E898F89988D0E94DF046D8B50
:1007B0007E8B8F8B988F91E0998F1A8E16C020E0D8
:1007C00030E048EC51E4C301B2010E940D07181655
:1007D00064F020E030E048EC51ECC301B2010E942B
:1007E000BD05882314F0198E1A8EB101330C880BC5
:1007F000990B0E943606A50194010E945E054B01EB
:100800005C0128E431EE4AE75FE3C701B6010E94CC
:100810001A076B017C0120E030E044E353E4C5019A
:10082000B4010E941A072BED3FE049E450E40E9416
:10083000C2052AE037ED43EA5CE30E941A079B01F8
:10084000AC01C701B6010E94DF046B017C0120E00E
:1008500030E048EC51E40E940D0718160CF470C00B
:1008600020E030E048EC51ECC701B6010E94BD0524
:100870008823B4F48B8D9C8D892B41F520E030E0EA
:1008800040E85FE36D897E898F89988D0E94DF043F
:100890006D8B7E8B8F8B988F91E09B8F1C8E16C0FB
:1008A00020E030E048EC51E4C701B6010E940D079A
:1008B000181664F020E030E048EC51ECC701B601B6
:1008C0000E94BD05882314F01B8E1C8E8FE39CE9CB
:1008D0000197F1F700C0000085E40E941C026989BD
:1008E0007A898B899C890E94330283E091E00E947F
:1008F0002402C301B2010E94330283E091E00E940E
:100900002402C701B6010E9433028AE00E941C0241
:1009100085E091E00E9424026D897E898F89988DFF
:100920000E94330284E591E00E9424028AE00E9442
:100930001C0257CE898D9A8D892B09F42ECF55CF65
:100940008B8D9C8D892B09F499CFC0CF1F920F926C
:100950000FB60F9211242F933F934F935F936F9392
:100960007F938F939F93AF93BF93EF93FF93609188
:100970006C0170916D0180916E0190916F0120E08A
:1009800030E040E85FE30E94DF0460936C01709305
:100990006D0180936E0190936F01FF91EF91BF9174
:1009A000AF919F918F917F916F915F914F913F9107
:1009B0002F910F900FBE0F901F9018955058BB2786
:1009C000AA270E94F6040C94D3060E94C50638F0AC
:1009D0000E94CC0620F039F49F3F19F426F40C94C1
:1009E0009B060EF4E095E7FB0C949506E92F0E9418
:1009F000E40658F3BA17620773078407950720F0D7
:100A000079F4A6F50C9406070EF4E0950B2EBA2F98
:100A1000A02D0B01B90190010C01CA01A001112404
:100A2000FF27591B99F0593F50F4503E68F11A16B0
:100A3000F040A22F232F342F4427585FF3CF469541
:100A400037952795A795F0405395C9F77EF41F1663
:100A5000BA0B620B730B840BBAF09150A1F0FF0F2D
:100A6000BB1F661F771F881FC2F70EC0BA0F621F19
:100A7000731F841F48F4879577956795B795F79509
:100A80009E3F08F0B0CF9395880F08F09927EE0F9E
:100A90009795879508950E94C50660F080E891E0DB
:100AA00009F49EEF0E94CC0628F040E851E071F472
:100AB0005EEF0CC00C949B060C940607E92FE078BF
:100AC0000E94E40640F3092E052AB1F326173707E2
:100AD0004807590738F00E2E07F8E02569F0E025A1
:100AE000E0640AC0EF6307F8009407FADB01B9017C
:100AF0009D01DC01CA01AD01EF930E94D9050E945E
:100B0000D3060E948E055F91552339F02BED3FE00F
:100B100049E450FD49EC0C94DF040895DF93DD2790
:100B2000B92FBF7740E85FE31616170648075B0743
:100B300018F4D92F0E9412079F938F937F936F937E
:100B40000E948707E8E6F0E00E949E060E94D30616
:100B50002F913F914F915F910E942D07DD2351F01E
:100B60009058A2EA2AED3FE049EC5FE3D0785D2798
:100B70000E94F604DF910C94D3060E94710608F4DB
:100B800081E008950E94D6050C94D3060E94CC06FD
:100B900058F00E94C50640F029F45F3F29F00C94FC
:100BA000950651110C9407070C949B060E94E406CD
:100BB00068F39923B1F3552391F3951B550BBB278C
:100BC000AA2762177307840738F09F5F5F4F220FD1
:100BD000331F441FAA1FA9F335D00E2E3AF0E0E8C8
:100BE00032D091505040E695001CCAF72BD0FE2F12
:100BF00029D0660F771F881FBB1F261737074807A6
:100C0000AB07B0E809F0BB0B802DBF01FF2793585D
:100C10005F4F3AF09E3F510578F00C9495060C9486
:100C200007075F3FE4F3983ED4F386957795679581
:100C3000B795F7959F5FC9F7880F911D9695879592
:100C400097F90895E1E0660F771F881FBB1F6217B1
:100C500073078407BA0720F0621B730B840BBA0B6F
:100C6000EE1F88F7E0950895E89409C097FB3EF4DD
:100C700090958095709561957F4F8F4F9F4F9923E9
:100C8000A9F0F92F96E9BB279395F6958795779567
:100C90006795B795F111F8CFFAF4BB0F11F460FF27
:100CA0001BC06F5F7F4F8F4F9F4F16C0882311F07F
:100CB00096E911C0772321F09EE8872F762F05C093
:100CC000662371F096E8862F70E060E02AF09A952E
:100CD000660F771F881FDAF7880F9695879597F923
:100CE0000895990F0008550FAA0BE0E8FEEF1616BD
:100CF0001706E807F907C0F012161306E407F50710
:100D000098F0621B730B840B950B39F40A2661F083
:100D1000232B242B252B21F408950A2609F4A14026
:100D2000A6958FEF811D811D089597F99F6780E833
:100D300070E060E008959FEF80EC0895DF93CF931B
:100D40001F930F93FF92EF92DF927B018C016894C7
:100D500006C0DA2EEF010E942D07FE01E894A5914E
:100D60002591359145915591A6F3EF010E94F60426
:100D7000FE019701A801DA9469F7DF90EF90FF90E8
:100D80000F911F91CF91DF91089500240A941616B8
:100D9000170618060906089500240A941216130669
:100DA000140605060895092E0394000C11F48823F7
:100DB00052F0BB0F40F4BF2B11F460FF04C06F5F13
:100DC0007F4F8F4F9F4F089557FD9058440F551FE9
:100DD00059F05F3F71F04795880F97FB991F61F0BD
:100DE0009F3F79F087950895121613061406551F34
:100DF000F2CF4695F1DF08C0161617061806991FA0
:100E0000F1CF86957105610508940895E894BB2794
:100E100066277727CB0197F908950E94710608F499
:100E20008FEF08959B01AC0160E070E080E89FE3E4
:100E30000C94C2050E942D070C94D3060E94C5068F
:100E400038F00E94CC0620F0952311F00C94950602
:100E50000C949B0611240C9407070E94E40670F37F
:100E6000959FC1F3950F50E0551F629FF001729F4F
:100E7000BB27F00DB11D639FAA27F00DB11DAA1F5E
:100E8000649F6627B00DA11D661F829F2227B00DAB
:100E9000A11D621F739FB00DA11D621F839FA00D36
:100EA000611D221F749F3327A00D611D231F849F86
:100EB000600D211D822F762F6A2F11249F575040DD
:100EC0009AF0F1F088234AF0EE0FFF1FBB1F661F58
:100ED000771F881F91505040A9F79E3F510580F021
:100EE0000C9495060C9407075F3FE4F3983ED4F307
:100EF000869577956795B795F795E7959F5FC1F7C5
:100F0000FE2B880F911D9695879597F908959B0163
:100F1000AC010C941A07AEE0B0E0E1E9F7E00C9404
:100F2000470A0D891E898F89988D26E02C831A83A4
:100F3000098397FF02C080E090E801979E838D832C
:100F4000AE01455E5F4F698D7A8DCE0101960E949C
:100F5000BB074D815E8157FD0AC02F81388542173E
:100F600053070CF49A01F801E20FF31F10822E963A
:100F7000E4E00C94630AACE0B0E0E1ECF7E00C9440
:100F8000390A7C016B018A01FC0117821682838178
:100F900081FFBDC1CE0101964C01F7019381F6019D
:100FA00093FD859193FF81916F01882309F4ABC173
:100FB000853239F493FD859193FF81916F018532DC
:100FC00029F4B70190E00E94A309E7CF512C312CFE
:100FD00020E02032A0F48B3269F030F4803259F0F6
:100FE000833269F420612CC08D3239F0803339F4BA
:100FF000216026C02260246023C0286021C027FD14
:1010000027C030ED380F3A3078F426FF06C0FAE0FA
:101010005F9E300D1124532E13C08AE0389E300D90
:101020001124332E20620CC08E3221F426FD6BC1B8
:10103000206406C08C3611F4206802C0883641F462
:10104000F60193FD859193FF81916F018111C1CFCD
:10105000982F9F7D9554933028F40C5F1F4FFFE32A
:10106000F9830DC0833631F0833771F0833509F091
:101070005BC022C0F801808189830E5F1F4F44242A
:101080004394512C540115C03801F2E06F0E711CCD
:10109000F801A080B18026FF03C0652D70E002C07A
:1010A0006FEF7FEFC5012C870E9498092C01830107
:1010B0002C852F77222E17C03801F2E06F0E711C9D
:1010C000F801A080B18026FF03C0652D70E002C04A
:1010D0006FEF7FEFC5012C870E948D092C012C85B5
:1010E0002068222E830123FC1BC0832D90E048162C
:1010F0005906B0F4B70180E290E00E94A3093A9447
:10110000F4CFF50127FC859127FE81915F01B7019E
:1011100090E00E94A30931103A94F1E04F1A51086F
:101120004114510471F7E5C0843611F0893639F560
:10113000F80127FF07C060817181828193810C5F74
:101140001F4F08C060817181072E000C880B990B1E
:101150000E5F1F4F2F76722E97FF09C090958095D6
:10116000709561957F4F8F4F9F4F2068722E2AE0B8
:1011700030E0A4010E94DB09A82EA81844C08537DE
:1011800029F42F7EB22E2AE030E025C0F22FF97F1D
:10119000BF2E8F36C1F018F4883579F0B4C080378F
:1011A00019F0883721F0AFC02F2F2061B22EB4FE86
:1011B0000DC08B2D8460B82E09C024FF0AC09F2F5C
:1011C0009660B92E06C028E030E005C020E130E08E
:1011D00002C020E132E0F801B7FE07C060817181F2
:1011E000828193810C5F1F4F06C06081718180E016
:1011F00090E00E5F1F4FA4010E94DB09A82EA818E3
:10120000FB2DFF777F2E76FE0BC0372D3E7FA5147A
:1012100050F474FE0AC072FC08C0372D3E7E05C033
:10122000BA2C372D03C0BA2C01C0B52C34FF0DC029
:10123000FE01EA0DF11D8081803311F4397E09C071
:1012400032FF06C0B394B39404C0832F867809F0AC
:10125000B39433FD13C030FF06C05A2CB31418F4F6
:10126000530C5B18B32CB31468F4B70180E290E020
:101270003C870E94A309B3943C85F5CFB31410F4C6
:101280003B1801C0312C34FF12C0B70180E390E05D
:101290003C870E94A3093C8532FF17C031FD03C083
:1012A00088E790E002C088E590E0B7010CC0832F8A
:1012B000867859F031FF02C08BE201C080E237FD31
:1012C0008DE2B70190E00E94A309A51438F4B7019C
:1012D00080E390E00E94A3095A94F7CFAA94F40106
:1012E000EA0DF11D8081B70190E00E94A309A110D1
:1012F000F5CF332009F451CEB70180E290E00E948F
:10130000A3093A94F6CFF7018681978102C08FEF47
:101310009FEF2C96E2E10C94550AFC010590615078
:1013200070400110D8F7809590958E0F9F1F0895FB
:10133000FC016150704001900110D8F780959095A4
:101340008E0F9F1F08950F931F93CF93DF93FB0181
:10135000238121FD03C08FEF9FEF28C022FF16C01D
:1013600046815781248135814217530744F4A08177
:10137000B1819D012F5F3F4F318320838C93268164
:1013800037812F5F3F4F3783268310C0EB01092F32
:10139000182F0084F185E02D0995892BE1F68E81C7
:1013A0009F8101969F838E83812F902FDF91CF9114
:1013B0001F910F910895FA01AA27283051F1203189
:1013C00081F1E8946F936E7F6E5F7F4F8F4F9F4FD9
:1013D000AF4FB1E03ED0B4E03CD0670F781F891F1B
:1013E0009A1FA11D680F791F8A1F911DA11D6A0FE9
:1013F000711D811D911DA11D20D009F468943F919C
:101400002AE0269F11243019305D3193DEF6CF019A
:101410000895462F4770405D4193B3E00FD0C9F760
:10142000F6CF462F4F70405D4A3318F0495D31FDCD
:101430004052419302D0A9F7EACFB4E0A695979520
:10144000879577956795BA95C9F7009761057105F6
:1014500008959B01AC010A2E069457954795379540
:101460002795BA95C9F7620F731F841F951FA01D9A
:1014700008952F923F924F925F926F927F928F9238
:101480009F92AF92BF92CF92DF92EF92FF920F9313
:101490001F93CF93DF93CDB7DEB7CA1BDB0B0FB61D
:1014A000F894DEBF0FBECDBF09942A8839884888DA
:1014B0005F846E847D848C849B84AA84B984C88470
:1014C000DF80EE80FD800C811B81AA81B981CE0F67
:1014D000D11D0FB6F894DEBF0FBECDBFED0108954C
:0414E000F894FFCFAE
:1014E4002566002C002020202020202020202020E1
:1014F40020202020202020202020202020202020E8
:1015040020202020202020202020202020202020D7
:1015140020202020202020202020202020202020C7
:1015240020202020202020204D4F56454D454E544C
:10153400533A20002020202020202020202020207A
:0C1544002020202020202020202000005B
:00000001FF
