:100000000C94CC000C94E9000C94E9000C94E900E9
:100010000C94E9000C94E9000C94E9000C94E900BC
:100020000C94E9000C94E9000C94E9000C94E900AC
:100030000C94E9000C94E4030C94E9000C94E9009E
:100040000C94E9000C94E9000C94E9000C94E9008C
:100050000C94E9000C94E9000C94E9000C94E9007C
:100060000C94E9000C94E900084AD73B3BCE016EA2
:1000700084BCBFFDC12F3D6C74319ABD56833DDAFF
:100080003D00C77F11BED9E4BB4C3E916BAAAABE0E
:10009000000000803F006E616E00696E66000040E7
:1000A0007A10F35A00A0724E18090010A5D4E80087
:1000B00000E87648170000E40B54020000CA9A3B9F
:1000C000000000E1F5050000809698000000404225
:1000D0000F000000A08601000000102700000000B3
:1000E000E803000000006400000000000A000000B7
:1000F00000000100000000002C76D888DC674F0863
:1001000023DFC1DFAE59E1B1B796E5E3E453C63A68
:10011000E651997696E8E6C28426EB898C9B62EDDF
:10012000407C6FFCEFBC9C9F40F2BAA56FA5F49099
:10013000055A2AF75C936B6CF9676DC11BFCE0E410
:100140000D47FEF520E6B500D0ED902E0300943566
:1001500077050080841E080000204E0A000000C8B9
:100160000C333333330F986E12831141EF8D21140A
:10017000893BE65516CFFEE6DB18D1844B381BF7DA
:100180007C1D901DA4BBE424203284725E22810079
:10019000C9F124ECA1E53D2711241FBECFEFD8E023
:1001A000DEBFCDBF11E0A0E0B1E0E4E0FBE102C0C2
:1001B00005900D92A237B107D9F721E0A2E7B1E08F
:1001C00001C01D92A637B207E1F70E94F2010C941C
:1001D000800D0C9400001092B90088E48093B80060
:1001E000089594EA9093BC00ECEBF0E090819923A1
:1001F000ECF79091B900987F983011F09031A1F40C
:100200008093BB0084E88093BC00ECEBF0E080813D
:100210008823ECF79091B900987F983139F081E00C
:10022000903429F480E0089581E0089580E00895F5
:10023000CF93DF93ECEBF0E024EAA9EBB0E0CBEB5B
:10024000D0E034E844E9208390819923ECF79C9135
:10025000987F983011F09031B1F788833083908186
:100260009923ECF79C91987F903211F0983529F4FE
:100270004083908194FDFDCFE6CFDF91CF9108952B
:100280000E94F100089584E98093BC00ECEBF0E05B
:10029000808184FDFDCF08958093BB0084E8809326
:1002A000BC00ECEBF0E080818823ECF79091B90082
:1002B000987F81E0983209F480E0089584E8809383
:1002C000BC00ECEBF0E080818823ECF78091BB0070
:1002D00008950F931F93CF93DF93C82FD62F8A01D2
:1002E0000E9418018D2F0E944C0181E08C0F0E940A
:1002F00040010E945E01F80180830E944301DF916A
:10030000CF911F910F910895CF93DF93D62FC42FD4
:100310000E9418018D2F0E944C018C2F0E944C01CD
:100320000E944301DF91CF91089510928000EFE683
:10033000F0E0808181608083E1E8F0E0808182608C
:10034000808380818A7F808308958F929F92AF926D
:10035000BF92CF92DF92EF92FF92CF93DF93EC01A7
:10036000F8944091840080918500C0907201D090F3
:100370007301E0907401F090750150E0582BBA01C0
:1003800080E090E00E94C2062DEB37E346E055E3A3
:100390000E94A8074B015C012DEB37E346E05DE3CB
:1003A000C701B6010E94A8079B01AC01C501B401B9
:1003B0000E946D05688379838A839B831092720102
:1003C0001092730110927401109275017894DF916C
:1003D000CF91FF90EF90DF90CF90BF90AF909F9024
:1003E0008F900895CF93DF93CDB7DEB7A4970FB664
:1003F000F894DEBF0FBECDBF78940E9413050E9413
:10040000EB00259A80ED0E94F1002D9A2FEF83ECEE
:1004100099E0215080409040E1F700C000002D9805
:100420000E941C040E949501CE0101960E94DD04E9
:10043000212C312C1E8A1D8A1D8E1E8E1F8E18A205
:10044000198E1A8E1B8E1C8E388E2F8ACE010D9619
:100450000E94A501CE0101960E94DD04CE010796FF
:100460000E9471046B857C85072E000C880B990B0C
:100470000E94C40620EE3EE245E652E40E94A80730
:1004800020E030E04AE754E40E94A80720E030E092
:1004900040E058E30E94A807698B7A8B8B8B9C8B7A
:1004A0008D849E84AF84B8886F817885072E000C78
:1004B000880B990B0E94C4062FE632E143E852E410
:1004C0000E945006A50194010E94A8079B01AC015F
:1004D000C301B2010E946D052B013C0169857A853B
:1004E000072E000C880B990B0E94C4062FE632E100
:1004F00043E852E40E9450069B01AC01C501B401DF
:100500000E94A8079B01AC01C701B6010E946C05BF
:100510006B017C0129803A800B811C816D817E8179
:100520009101332024F42227332722193309C801EB
:10053000112324F488279927801B910B280F391F3A
:10054000CB01772324F488279927861B970B820FEA
:10055000931F813090420CF4EEC0072E000C880BE4
:10056000990B0E94C4064B015C01B801110F880B66
:10057000990B0E94C406A50194010E94EC0569A391
:100580007AA38BA39CA328E431EE4AE75FE3C3017F
:10059000B2010E94A8072B013C0120E030E044E3B7
:1005A00053E469A17AA18BA19CA10E94A8072BED1D
:1005B0003FE049E450E40E9450062AE037ED43EA68
:1005C0005CE30E94A8079B01AC01C301B2010E9439
:1005D0006D052B013C0120E030E048EC51E40E9425
:1005E0009B0718160CF4E4C020E030E048EC51EC16
:1005F000C301B2010E944B068823B4F48D899E8901
:10060000892B41F520E030E040E85FE3698D7A8D89
:100610008B8D9C8D0E946D05698F7A8F8B8F9C8F3F
:1006200091E09D8B1E8A16C020E030E048EC51E43A
:10063000C301B2010E949B07181664F020E030E06D
:1006400048EC51ECC301B2010E944B06882314F020
:100650001D8A1E8AB101330C880B990B0E94C406B7
:10066000A50194010E94EC054B015C0128E431EEE8
:100670004AE75FE3C701B6010E94A8076B017C014E
:1006800020E030E044E353E4C501B4010E94A80730
:100690002BED3FE049E450E40E9450062AE037ED9C
:1006A00043EA5CE30E94A8079B01AC01C701B601C5
:1006B0000E946D056B017C0120E030E048EC51E4C4
:1006C0000E949B0718160CF479C020E030E048EC3B
:1006D00051ECC701B6010E944B068823B4F48F8900
:1006E000988D892B41F520E030E040E85FE36D8D87
:1006F0007E8D8F8D98A10E946D056D8F7E8F8F8F5F
:1007000098A391E09F8B188E16C020E030E048EC53
:1007100051E4C701B6010E949B07181664F020E05F
:1007200030E048EC51ECC701B6010E944B0688232B
:1007300014F01F8A188E8FE39CE90197F1F700C02F
:10074000000080E091E00E942C0569897A898B89FC
:100750009C890E943B0582E091E00E942C05C30128
:10076000B2010E943B0582E091E00E942C05C70186
:10077000B6010E943B0584E091E00E942C0586E0D2
:1007800091E00E942C05698D7A8D8B8D9C8D0E9445
:100790003B0587E591E00E942C056D8D7E8D8F8D48
:1007A00098A10E943B0584E091E00E942C054ECE6A
:1007B0008D899E89892B09F425CF4CCF8F89988DFF
:1007C000892B09F490CFB7CF1F920F920FB60F92DB
:1007D00011242F933F934F935F936F937F938F9346
:1007E0009F93AF93BF93EF93FF93609172017091CA
:1007F0007301809174019091750120E030E040E830
:100800005FE30E946D0560937201709373018093A2
:10081000740190937501FF91EF91BF91AF919F91FA
:100820008F917F916F915F914F913F912F910F9099
:100830000FBE0F901F90189540E06BE680ED0E9470
:10084000840141E06AE180ED0E94840140E16BE1B6
:1008500080ED0E94840140E06CE180ED0E94840103
:1008600040E068E380ED0E94840140E068E680EDAE
:100870000E9484010895CF93DF93EC01AC0163E4FF
:1008800080ED0E946901AE014F5F5F4F64E480ED2F
:100890000E946901DF91CF910895CF93DF93EC011E
:1008A000AC0165E480ED0E946901AE014F5F5F4FCE
:1008B00066E480ED0E946901DF91CF910895CF93A6
:1008C000DF93EC01AC0167E480ED0E946901AE01A9
:1008D0004F5F5F4F68E480ED0E946901DF91CF9127
:1008E00008950F931F93CF93DF9300D0CDB7DEB75A
:1008F0008C01CE0101960E943B04898190E0982FE3
:1009000088272A81822BF80191838083CE0101966A
:100910000E944D04898190E0982F88272A81822B9C
:10092000F80193838283CE0101960E945F0429819E
:1009300030E0322F22278A81282BF8013583248347
:100940000F900F90DF91CF911F910F910895CF934A
:10095000DF93EC01AC016BE380ED0E946901AE0115
:100960004F5F5F4F6CE380ED0E946901DF91CF9193
:100970000895CF93DF93EC01AC016DE380ED0E940D
:100980006901AE014F5F5F4F6EE380ED0E94690128
:10099000DF91CF910895CF93DF93EC01AC016FE32A
:1009A00080ED0E946901AE014F5F5F4F60E480ED12
:1009B0000E946901DF91CF9108950F931F93CF9308
:1009C000DF9300D0CDB7DEB78C01CE0101960E9437
:1009D000A704898190E0982F88272A81822BF8012B
:1009E00091838083CE0101960E94B904898190E0B1
:1009F000982F88272A81822BF80193838283CE0146
:100A000001960E94CB04298130E0322F22278A816F
:100A1000282BF801358324830F900F90DF91CF911D
:100A20001F910F9108951092C50087E68093C4002E
:100A3000E0ECF0E080818D7F808386E08093C200CF
:100A400088E98093C1000895E0ECF0E0908195FF83
:100A5000FDCF8093C6000895CF93DF93EC0188818A
:100A6000882331F021960E94240589918111FBCFC2
:100A7000DF91CF9108950F931F93CF93DF93CDB75D
:100A8000DEB72A970FB6F894DEBF0FBECDBF9F9397
:100A90008F937F936F938EE691E09F938F931F9236
:100AA0008AE08F938E010F5F1F4F1F930F930E9459
:100AB000F20CC8010E942C050FB6F894DEBF0FBEE1
:100AC000CDBF2A960FB6F894DEBF0FBECDBFDF9123
:100AD000CF911F910F9108955058BB27AA270E94CC
:100AE00084050C9461070E94530738F00E945A074E
:100AF00020F039F49F3F19F426F40C9429070EF4E2
:100B0000E095E7FB0C942307E92F0E94720758F346
:100B1000BA17620773078407950720F079F4A6F5E2
:100B20000C9494070EF4E0950B2EBA2FA02D0B0118
:100B3000B90190010C01CA01A0011124FF27591B22
:100B400099F0593F50F4503E68F11A16F040A22F28
:100B5000232F342F4427585FF3CF46953795279599
:100B6000A795F0405395C9F77EF41F16BA0B620B98
:100B7000730B840BBAF09150A1F0FF0FBB1F661FDF
:100B8000771F881FC2F70EC0BA0F621F731F841F22
:100B900048F4879577956795B795F7959E3F08F048
:100BA000B0CF9395880F08F09927EE0F979587950A
:100BB00008950E94530760F080E891E009F49EEFE9
:100BC0000E945A0728F040E851E071F45EEF0CC033
:100BD0000C9429070C949407E92FE0780E9472077F
:100BE00040F3092E052AB1F326173707480759079E
:100BF00038F00E2E07F8E02569F0E025E0640AC021
:100C0000EF6307F8009407FADB01B9019D01DC01ED
:100C1000CA01AD01EF930E9467060E9461070E941E
:100C20001C065F91552339F02BED3FE049E450FD60
:100C300049EC0C946D050895DF93DD27B92FBF773C
:100C400040E85FE31616170648075B0718F4D92F2C
:100C50000E94A0079F938F937F936F930E94150824
:100C6000E8E6F0E00E942C070E9461072F913F9177
:100C70004F915F910E94BB07DD2351F09058A2EA8B
:100C80002AED3FE049EC5FE3D0785D270E948405C0
:100C9000DF910C9461070E94FF0608F481E008953B
:100CA0000E9464060C9461070E945A0758F00E9443
:100CB000530740F029F45F3F29F00C9423075111AA
:100CC0000C9495070C9429070E94720768F39923E6
:100CD000B1F3552391F3951B550BBB27AA27621738
:100CE0007307840738F09F5F5F4F220F331F441F45
:100CF000AA1FA9F335D00E2E3AF0E0E832D0915079
:100D00005040E695001CCAF72BD0FE2F29D0660F65
:100D1000771F881FBB1F261737074807AB07B0E8A8
:100D200009F0BB0B802DBF01FF2793585F4F3AF0AE
:100D30009E3F510578F00C9423070C9495075F3F74
:100D4000E4F3983ED4F3869577956795B795F79534
:100D50009F5FC9F7880F911D9695879597F908951C
:100D6000E1E0660F771F881FBB1F621773078407B8
:100D7000BA0720F0621B730B840BBA0BEE1F88F7C7
:100D8000E0950895E89409C097FB3EF4909580950E
:100D9000709561957F4F8F4F9F4F9923A9F0F92F41
:100DA00096E9BB279395F695879577956795B795BF
:100DB000F111F8CFFAF4BB0F11F460FF1BC06F5FA5
:100DC0007F4F8F4F9F4F16C0882311F096E911C0B7
:100DD000772321F09EE8872F762F05C0662371F0D8
:100DE00096E8862F70E060E02AF09A95660F771FEC
:100DF000881FDAF7880F9695879597F90895990FC8
:100E00000008550FAA0BE0E8FEEF16161706E807D4
:100E1000F907C0F012161306E407F50798F0621BF5
:100E2000730B840B950B39F40A2661F0232B242BCA
:100E3000252B21F408950A2609F4A140A6958FEFE9
:100E4000811D811D089597F99F6780E870E060E03B
:100E500008959FEF80EC0895DF93CF931F930F9336
:100E6000FF92EF92DF927B018C01689406C0DA2E2C
:100E7000EF010E94BB07FE01E894A59125913591F1
:100E800045915591A6F3EF010E948405FE0197015B
:100E9000A801DA9469F7DF90EF90FF900F911F910E
:100EA000CF91DF91089500240A94161617061806AC
:100EB0000906089500240A9412161306140605065E
:100EC0000895092E0394000C11F4882352F0BB0FEF
:100ED00040F4BF2B11F460FF04C06F5F7F4F8F4F52
:100EE0009F4F089557FD9058440F551F59F05F3F8D
:100EF00071F04795880F97FB991F61F09F3F79F03C
:100F000087950895121613061406551FF2CF4695BD
:100F1000F1DF08C0161617061806991FF1CF86953F
:100F20007105610508940895E894BB276627772723
:100F3000CB0197F908950E94FF0608F48FEF0895FA
:100F40009B01AC0160E070E080E89FE30C945006E8
:100F50000E94BB070C9461070E94530738F00E945F
:100F60005A0720F0952311F00C9423070C942907BD
:100F700011240C9495070E94720770F3959FC1F39A
:100F8000950F50E0551F629FF001729FBB27F00D37
:100F9000B11D639FAA27F00DB11DAA1F649F66278C
:100FA000B00DA11D661F829F2227B00DA11D621FDB
:100FB000739FB00DA11D621F839FA00D611D221F95
:100FC000749F3327A00D611D231F849F600D211D79
:100FD000822F762F6A2F11249F5750409AF0F1F0FC
:100FE00088234AF0EE0FFF1FBB1F661F771F881F65
:100FF00091505040A9F79E3F510580F00C94230773
:101000000C9495075F3FE4F3983ED4F3869577956B
:101010006795B795F795E7959F5FC1F7FE2B880F0A
:10102000911D9695879597F908959B01AC010C94B5
:10103000A807A3E1B0E0EFE1F8E00C94950B6C0198
:101040004B012A01FC0117821682838181FF43C371
:10105000AE014F5F5F4F3A01F6019381F40193FDBA
:10106000859193FF81914F01882309F430C3853224
:1010700039F493FD859193FF81914F01853239F4C5
:10108000B60190E00E94BA0C52012501E5CF10E0B4
:10109000F12C20E02032A0F48B3269F030F4803261
:1010A00059F0833269F420612CC08D3239F08033DD
:1010B00039F4216026C02260246023C0286021C04A
:1010C00027FD27C030ED380F3A3078F426FF06C0F0
:1010D000FAE01F9F300D1124132F13C04AE0F49E35
:1010E000300D1124F32E20620CC08E3221F426FD27
:1010F000EEC2206406C08C3611F4206802C0883627
:1011000041F4F40193FD859193FF81914F01811189
:10111000C1CF9BEB980F933018F42061805E06C01E
:101120009BE9980F933008F071C12F7E26FF16E0DF
:101130002F73322E853619F42064322E08C086367D
:1011400021F4F22FF0683F2E02C01111115037FE2A
:1011500007C01C3350F4EE24E394E10E27E00BC0EB
:10116000183038F027E017E005C027E04CE3E42E04
:1011700002C0212FE12C520144E0A40EB11CF20167
:1011800060817181828193810E2DA3010E94CC0B1D
:101190002C01098100FF02C003FF07C031FC08C019
:1011A00032FE09C030E2232E07C02DE2222E04C0F9
:1011B0009BE2292E01C0212C802F8C7019F0211068
:1011C00068C2A8C237FE0FC0E40C04FF04C08A81C5
:1011D000813309F4EA941E1474F5F8E0FE1578F5ED
:1011E00088E0E82E2CC036FC2AC0812F90E08415C0
:1011F00095059CF02CEF42162FEF520674F0432D0C
:101200004068342E0AC0E2E0F0E0EC0FFD1FE10F71
:10121000F11D8081803319F411501111F4CF37FE84
:101220000EC0EE24E394E10E812F90E0481659069B
:101230002CF4141904C0EE24E39401C010E037FE2E
:1012400006C01414150434F4C201019605C085E0EB
:1012500090E002C081E090E021100196112331F06E
:10126000212F30E02F5F3F4F820F931F2F2D30E053
:101270008217930714F4F81A01C0F12C832D89709A
:1012800049F4FF2039F0B60180E290E00E94BA0CE8
:10129000FA94F7CF222029F0B601822D90E00E9427
:1012A000BA0C33FC09C0FF2039F0B60180E390E0AE
:1012B0000E94BA0CFA94F7CF37FE5AC0942D852DB0
:1012C00057FE02C090E080E0292E382E20E030E06A
:1012D000A2014E1951095D874C87A2014219530999
:1012E0005F874E87612F70E044275527461B570BB9
:1012F000598B488B5FEF2516350649F4B6018EE20F
:1013000090E02A8B3B8B0E94BA0C3B892A894214BD
:1013100053046CF04C855D854215530544F4EE850D
:10132000FF85E20FF31FE60DF71D818101C080E309
:1013300051E0251A31082F5F3F4F488959892416FB
:1013400035064CF0B60190E02A8B3B8B0E94BA0C1C
:101350002A893B89CFCF2414350439F49A819633F6
:1013600018F4953311F404FF81E3B60190E04BC00B
:101370008A81813309F00F7EB60190E00E94BA0C99
:10138000111105C034FC18C085E690E017C0B60105
:101390008EE290E00E94BA0C82E0EE24E394E80E24
:1013A000F301E80FF11D8081B60190E00E94BA0CB4
:1013B00011508E2D91F7E6CF85E490E0B6010E94A2
:1013C000BA0C57FC05C04114510439F404FF05C0A0
:1013D0005194419451088DE201C08BE2B60190E036
:1013E0000E94BA0C80E39AE0491651042CF08F5FFA
:1013F0005AE0451A5108F7CFB60190E00E94BA0CA6
:10140000B601C201C0960E94BA0C57C1833631F0B2
:10141000833779F0833509F058C021C05201E2E0EA
:10142000AE0EB11CF2018081898301E010E023013E
:1014300014C05201F2E0AF0EB11CF20140805180A5
:1014400026FF03C0612F70E002C06FEF7FEFC20183
:101450002A8B0E94AF0C8C012A892F7715C052016C
:10146000F2E0AF0EB11CF2014080518026FF03C0B4
:10147000612F70E002C06FEF7FEFC2012A8B0E94E4
:10148000A40C8C012A892068322E23FD1AC08F2DCE
:1014900090E008171907A8F4B60180E290E00E94D6
:1014A000BA0CFA94F4CFF20137FC859137FE8191A2
:1014B0002F01B60190E00E94BA0CF110FA9401508D
:1014C00011090115110579F7F8C0843611F0893634
:1014D00059F5520127FF09C0F4E0AF0EB11CF2012B
:1014E00060817181828193810AC0F2E0AF0EB11CEC
:1014F000F20160817181072E000C880B990B2F7609
:10150000322E97FF09C090958095709561957F4F19
:101510008F4F9F4F2068322E2AE030E0A3010E94B7
:10152000220DE82EE6183FC0022F853721F40F7EEA
:101530002AE030E01DC0097F8F3691F018F488351D
:1015400059F0C5C0803719F0883711F0C0C000616C
:1015500004FF09C0046007C024FF08C0066006C07D
:1015600028E030E005C020E130E002C020E132E0B8
:10157000520107FF09C0F4E0AF0EB11CF201608117
:1015800071818281938108C0F2E0AF0EB11CF2013B
:101590006081718180E090E0A3010E94220DE82E1D
:1015A000E6180F77302E36FE0BC0332D3E7FE11646
:1015B00050F434FE0AC032FC08C0332D3E7E05C014
:1015C0000E2D332D03C00E2D01C0012F34FF0CC092
:1015D000FE01EE0DF11D8081803311F4397E08C0CB
:1015E00032FF05C00E5F04C0832F867809F00F5FBD
:1015F00033FD13C030FF06C01E2D0F1518F41F0D4C
:10160000101B0F2D0F1568F4B60180E290E03B8BA4
:101610000E94BA0C0F5F3B89F5CF0F1510F4F01A3A
:1016200001C0F12C34FF12C0B60180E390E03B8B87
:101630000E94BA0C3B8932FF17C031FD03C088E716
:1016400090E002C088E590E0B6010CC0832F867858
:1016500059F031FF02C08BE201C080E237FD8DE21C
:10166000B60190E00E94BA0CE11638F4B60180E3AE
:1016700090E00E94BA0C1150F7CFEA94F301EE0DFE
:10168000F11D8081B60190E00E94BA0CE110F5CF07
:1016900014C0F4E0FF1558F584E0F81A33FE1EC0BC
:1016A000211026C003FF2AC006E910E0F32DF071D7
:1016B0003F2EF8018491811124C0FF2009F4E5CC6C
:1016C000B60180E290E00E94BA0CFA94F6CFF601DF
:1016D0008681978126C08FEF9FEF23C0B60180E2FD
:1016E00090E00E94BA0CFA94F110F8CFD9CFF12C07
:1016F000B601822D90E00E94BA0CD4CF0AE910E026
:10170000D5CF31108052B60190E00E94BA0C0F5F25
:101710001F4FCFCF23E02F1510F483E0BECFF12C65
:10172000C1CF6396E2E10C94B10B2F923F924F929E
:101730005F926F927F928F929F92AF92BF92CF9261
:10174000DF92EF92FF920F931F93CF93DF93CDB76A
:10175000DEB7CA1BDB0B0FB6F894DEBF0FBECDBFE2
:1017600009942A88398848885F846E847D848C84B3
:101770009B84AA84B984C884DF80EE80FD800C81BC
:101780001B81AA81B981CE0FD11D0FB6F894DEBF9F
:101790000FBECDBFED010895283008F027E03327B4
:1017A000DA01990F311D87FD916000966105710581
:1017B00039F432602E5F3D9330E32A95E1F70895C6
:1017C0009F3F30F080387105610509F03C5F3C5F58
:1017D0003D93913008F08068911DDF93CF931F9364
:1017E0000F93FF92EF92192F987F9695E92F969578
:1017F0009695E90FFF27E850FF4F99273327EE24EE
:10180000FF24A701E70105900894079428F4360FF8
:10181000E71EF81E491F511D660F771F881F991F6D
:101820000694A1F70590079428F4E70EF81E491FC7
:10183000561FC11D770F881F991F661F0694A1F7B9
:101840000590079428F4F80E491F561FC71FD11D95
:10185000880F991F661F771F0694A1F705900794BC
:1018600020F4490F561FC71FD81F990F661F771FF7
:10187000881F0694A9F784911095177041F0D695AA
:10188000C79557954795F794E7941A95C1F7EEE9F0
:10189000F0E06894159015913591659195910590BA
:1018A0007FE27395E118F10A430B560BC90BD0097F
:1018B000C0F7E10CF11E431F561FC91FD01D7EF457
:1018C000703311F48A95E6CFE894015030F0080F98
:1018D0000AF40027021708F4202F2395022F7A33E9
:1018E00028F079E37D932A95E9F710C07D932A9536
:1018F00089F6069497956795379517951794E1188B
:10190000F10A430B560BC90BD00998F023957E9131
:1019100073957A3308F070E37C932013B8F77E91C7
:1019200070617D9330F0839571E37D9370E32A9528
:10193000E1F71124EF90FF900F911F91CF91DF916C
:10194000992787FD90950895FC010590615070409E
:101950000110D8F7809590958E0F9F1F0895FC0178
:101960006150704001900110D8F7809590958E0FCE
:101970009F1F08950F931F93CF93DF93FB01238144
:1019800021FD03C08FEF9FEF28C022FF16C04681C4
:101990005781248135814217530744F4A081B181D6
:1019A0009D012F5F3F4F318320838C9326813781A8
:1019B0002F5F3F4F3783268310C0EB01092F182F6D
:1019C0000084F185E02D0995892BE1F68E819F81B8
:1019D00001969F838E83812F902FDF91CF911F914E
:1019E0000F910895AEE0B0E0E8EFFCE00C94A30B9B
:1019F0000D891E898F89988D26E02C831A8309838F
:101A000097FF02C080E090E801979E838D83AE012E
:101A1000455E5F4F698D7A8DCE0101960E9419084F
:101A20004D815E8157FD0AC02F81388542175307CB
:101A30000CF49A01F801E20FF31F10822E96E4E0F5
:101A40000C94BF0BFA01AA27283051F1203181F103
:101A5000E8946F936E7F6E5F7F4F8F4F9F4FAF4FB6
:101A6000B1E03ED0B4E03CD0670F781F891F9A1FC9
:101A7000A11D680F791F8A1F911DA11D6A0F711D7D
:101A8000811D911DA11D20D009F468943F912AE089
:101A9000269F11243019305D3193DEF6CF01089571
:101AA000462F4770405D4193B3E00FD0C9F7F6CFA2
:101AB000462F4F70405D4A3318F0495D31FD40526A
:101AC000419302D0A9F7EACFB4E0A6959795879500
:101AD00077956795BA95C9F70097610571050895DF
:101AE0009B01AC010A2E069457954795379527958B
:101AF000BA95C9F7620F731F841F951FA01D089523
:041B0000F894FFCF87
:101B040045002C000A002020202020202020202016
:101B140020202020202020202020202020202020C1
:101B240020202020202020202020202020202020B1
:101B340020202020202020202020202020202020A1
:101B44002020202020202020582D617869732074C3
:101B540075726E733A200020202020202020205906
:101B64002D61786973207475726E733A200025664E
:021B740000006F
:00000001FF
