:100000000C9434000C943E000C943E000C943E0082
:100010000C943E000C943E000C943E000C943E0068
:100020000C943E000C943E000C943E000C943E0058
:100030000C943E000C943E000C943E000C943E0048
:100040000C943E000C943E000C943E000C943E0038
:100050000C943E000C943E000C943E000C943E0028
:100060000C943E000C943E0011241FBECFEFD8E04C
:10007000DEBFCDBF0E9451000C94D3010C94000050
:10008000181619066CF420E030E0EFE9FFE0319734
:10009000F1F700C000002F5F3F4F28173907A9F77D
:1000A00008958FE08AB9389887E880937A0080E6CF
:1000B00080937C00CAE7D0E009E710E00F2EF6E657
:1000C0008F2EF02D0F2EF3E39F2EF02D0F2EF9E93A
:1000D000AF2EF02D0F2EFCECBF2EF02D888180640A
:1000E0008883888184FFFDCFF80160818BB870E040
:1000F00080E090E00E94DA0020E030E040EA50E446
:100100000E943E0120E030E040E85AE30E943E01B8
:1001100020E030E048E453E40E943E010E94A20047
:100120006B017C01CB010E9440009BB8C6010E947C
:100130004000ABB8C6010E944000BBB8C6010E9497
:100140004000CCCF0E94A9006894B1110C943801F2
:1001500008950E941D0188F09F5798F0B92F9927A4
:10016000B751B0F0E1F0660F771F881F991F1AF0A2
:10017000BA95C9F714C0B13091F00E943701B1E0CF
:1001800008950C943701672F782F8827B85F39F0CE
:10019000B93FCCF3869577956795B395D9F73EF43B
:1001A00090958095709561957F4F8F4F9F4F0895E3
:1001B000E89409C097FB3EF4909580957095619501
:1001C0007F4F8F4F9F4F9923A9F0F92F96E9BB27B7
:1001D0009395F695879577956795B795F111F8CF33
:1001E000FAF4BB0F11F460FF1BC06F5F7F4F8F4F9E
:1001F0009F4F16C0882311F096E911C0772321F094
:100200009EE8872F762F05C0662371F096E8862F2B
:1002100070E060E02AF09A95660F771F881FDAF782
:10022000880F9695879597F9089557FD9058440F34
:10023000551F59F05F3F71F04795880F97FB991F45
:1002400061F09F3F79F08795089512161306140602
:10025000551FF2CF4695F1DF08C01616170618068F
:10026000991FF1CF86957105610508940895E8946A
:10027000BB2766277727CB0197F908950E94510184
:100280000C94C2010E94B40138F00E94BB0120F01E
:10029000952311F00C94AB010C94B10111240C9432
:1002A00038010E94150170F3959FC1F3950F50E03E
:1002B000551F629FF001729FBB27F00DB11D639F18
:1002C000AA27F00DB11DAA1F649F6627B00DA11DBE
:1002D000661F829F2227B00DA11D621F739FB00D64
:1002E000A11D621F839FA00D611D221F749F3327D4
:1002F000A00D611D231F849F600D211D822F762F6D
:100300006A2F11249F5750409AF0F1F088234AF049
:10031000EE0FFF1FBB1F661F771F881F91505040B5
:10032000A9F79E3F510580F00C94AB010C94380165
:100330005F3FE4F3983ED4F3869577956795B7953C
:10034000F795E7959F5FC1F7FE2B880F911D969556
:10035000879597F9089597F99F6780E870E060E0C6
:1003600008959FEF80EC089500240A94161617064E
:1003700018060906089500240A9412161306140696
:1003800005060895092E0394000C11F4882352F0F9
:10039000BB0F40F4BF2B11F460FF04C06F5F7F4FB1
:0A03A0008F4F9F4F0895F894FFCF90
:00000001FF
