S00D000044413254342E73726563D8
S11300000C9434000C943E000C943E000C943E007E
S11300100C943E000C943E000C943E000C943E0064
S11300200C943E000C943E000C943E000C943E0054
S11300300C943E000C943E000C943E000C943E0044
S11300400C943E000C943E000C943E000C943E0034
S11300500C943E000C943E000C943E000C943E0024
S11300600C943E000C943E0011241FBECFEFD8E048
S1130070DEBFCDBF0E9440000C9456000C940000DB
S1130080389A2FE78AE196E0215080409040E1F7CA
S113009000C00000409A2FE78AE196E0215080409A
S11300A09040E1F700C0000018B8EBCFF894FFCF00
S9030000FC
