:100000000C941D020C943A020C943A020C943A029D
:100010000C943A020C943A020C943A020C943A0270
:100020000C943A020C943A020C943A020C943A0260
:100030000C943A020C943A020C943A020C943A0250
:100040000C943A020C943A020C943A020C943A0240
:100050000C943A020C943A020C943A020C943A0230
:100060000C943A020C943A0246006F004C6F6164A3
:10007000696E67204441362E2E2E000000000000DD
:100080000000000000000000000000000000000070
:100090000000000000000000000000000000000060
:1000A0000000000000000000000000000000000050
:1000B0000000000000000000000000000000000040
:1000C0000000000000000000000000000000000030
:1000D0000000000000000000C02020202020202080
:1000E000202020C0000000000000000000F01010E0
:1000F0001010E00000F000008040404080000080D0
:1001000040404080000080404040800000804040EF
:10011000408000000000000000000000000000001F
:100120000000000000000000000000000F1131314D
:10013000D1F1D1D13111110F0000000000000000F9
:10014000001F010101010000001F00000F12121228
:100150000B00000C12120A1F0000091212120C00F0
:10016000000F1212120B000000000000000000003F
:10017000000000000000000000000000000000007F
:10018000F0188686E1F1E1E1861818F00000000021
:10019000000000000000006080008060800080603F
:1001A0000040202020C00000E80020F820000000CF
:1001B000000000000000000000000000000000003F
:1001C000000000000000000000000000000000002F
:1001D00000000000030707070707070707070703D3
:1001E000000000000000000000000000030C0300FD
:1001F000030C030000060909050F00000F00000FA3
:1002000008000000000800000800000800000000CE
:1002100000000000000000000000000000000000DE
:1002200000000000000000000000000000000000CE
:1002300000000000000000000000000000000000BE
:1002400000000000000000000000000000000000AE
:10025000000000000000000000000000000000009E
:10026000000000000000000000000000000000008E
:10027000000000000000000000002F000000070048
:100280000700147F147F14242A7F2A12C4C8102662
:100290004636495522500005030000001C2241004B
:1002A0000041221C0014083E081408083E080800FB
:1002B000005030001010101010006060000020107E
:1002C0000804023E5149453E00427F4000426151D0
:1002D00049462141454B311814127F1027454545A9
:1002E000393C4A49493001710905033649494936C3
:1002F000064949291E00363600000056360000081F
:100300001422410014141414140041221408020190
:10031000510906324959513E7E1111117E7F4949DA
:1003200049363E414141227F4141221C7F49494992
:10033000417F090909013E4149497A7F0808087F40
:1003400000417F41002040413F017F081422417F4E
:10035000404040407F020C027F7F0408107F3E41F6
:1003600041413E7F090909063E4151215E7F09193D
:100370002946464949493101017F01013F4040403A
:100380003F1F2040201F3F4038403F631408146344
:1003900007087008076151494543007F41410055F6
:1003A0002A552A550041417F0004020102044040C1
:1003B000404040000102040020545454787F4844D7
:1003C00044383844444420384444487F38545454D2
:1003D00018087E0901020C5252523E7F080404782C
:1003E00000447D40002040443D007F102844000030
:1003F000417F40007C041804787C08040478384469
:100400004444387C14141408081414187C7C080420
:1004100004084854545420043F4440203C404020A9
:100420007C1C2040201C3C4030403C442810284488
:100430000C5050503C4464544C4411241FBECFEF28
:10044000D8E0DEBFCDBF11E0A0E0B1E0ECEAF0E122
:1004500002C005900D92AA30B107D9F723E0AAE0B7
:10046000B1E001C01D92A930B207E1F70E94280453
:100470000C9454080C9400002A98613011F4289AC6
:1004800001C028988EBD0DB407FEFDCF2A9A0895AD
:10049000CF93C82F60E081E20E943C0260E08C2F85
:1004A00080680E943C0260E080E20E943C02CF91A2
:1004B000089588EF91E0E1E1F1E0DF019C011D92F8
:1004C00021503040E1F710920E0110920D0187EF9C
:1004D00091E090930C0180930B0181E080930A01DD
:1004E0000895FF920F931F93CF93DF9340910F01D5
:1004F0005091100120910D0130910E0142175307C8
:1005000024F450930E0140930D0190EE960F9C350C
:1005100008F49CC06CE59AC08491880F8D93319645
:10052000A217B307C9F74B5F5F4F50931001409379
:100530000F0166C0823009F063C0CA018455910979
:1005400020910D0130910E01821793070CF098C095
:1005500090930E0180930D0193C09491990F892F70
:100560008470282F220F820F282F220F220F892F0D
:100570008270382F330F830F880F822B392F3870FA
:100580003F9D302D1124382B92959F70292F21707B
:10059000822F880F820F292F2270122F110F210F07
:1005A000220F282B892F8470182F110F810F880F8D
:1005B000880F822B292F28702F9D202D1124982FF2
:1005C000922B8D0101501109E80138833C939D0164
:1005D0002D5A3F4FE90198832F5F3F4FE9019883E0
:1005E00031961296A617B70709F0B7CFCA010B9636
:1005F00068EF71E00E943C059093100180930F0119
:1006000080910F019091100120910B0130910C010C
:100610002817390724F490930C0180930B01FC01F7
:10062000EF5EFE4F1082873FD1E09D0731F41092BC
:10063000100110920F0182E03CC0019690931001CE
:1006400080930F0180E035C081E033C0813009F034
:1006500071CF40910F015091100170E0605271090B
:10066000FB01EE0FFF1FEE0FFF1FE60FF71FED5808
:10067000FD4FDA01AF5EBE4F9A012A5E3E4F4CCF6E
:10068000992314F370E060527109FB01EE0FFF1F14
:10069000EE0FFF1FE60FF71FED58FD4FDA01A254D2
:1006A000BF4FBA0168537F4F0F2EF8E1FF2EF02D98
:1006B00054CFDF91CF911F910F91FF9008951F9319
:1006C000CF93DF93182FEB01FB016491662361F058
:1006D000812F0E947102813049F02196FE016491C0
:1006E0006111F6CF80E003C080E001C081E0DF91BE
:1006F000CF911F91089548EF51E0BC0181E191E055
:100700000E94730510920E0110920D0187EF91E087
:1007100090930C0180930B0181E080930A0108956E
:100720000F931F93CF93DF9380910D0190910E0152
:1007300099232CF410920E0110920D0109C0883FEC
:10074000914034F087EF91E090930E0180930D017A
:1007500080910B0190910C0199232CF410920C01C3
:1007600010920B0109C0883F914034F087EF91E06F
:1007700090930C0180930B01C0910D01D0910E015B
:10078000CE0164E570E00E943C05162F60E08068B1
:100790000E943C0260E0812F80640E943C028091B4
:1007A0000B0190910C018C179D078CF08E010F5E50
:1007B0001E4F61E0F80181918F010E943C02219659
:1007C00080910B0190910C018C179D0794F787EF96
:1007D00091E090930E0180930D0110920C01109204
:1007E0000B0110920A01DF91CF911F910F91089593
:1007F0002C9A84B18D6384B92C982C9A80E58CBD99
:100800002A9A60E081E20E943C0260E088EC0E944B
:100810003C0260E086E00E943C0260E083E10E94CE
:100820003C0260E080E20E943C0260E08CE00E94BA
:100830003C0288EF91E090930E0180930D0110929D
:100840000C0110920B010E9459020E94900308951E
:10085000CF93DF9300D000D0CDB7DEB70E94F8036E
:100860008FE70E9448022FE36DE083E02150604053
:100870008040E1F700C000000E9459028FE30E940F
:1008800048029FE3EDE0F3E09150E040F040E1F7F3
:1008900000C000000E9459028BE790E00E947B0399
:1008A00084EA91E09093100180930F016CE670E070
:1008B00081E00E945F030E9490032FEF64E38CE0CD
:1008C000215060408040E1F700C00000EAE7F0E01E
:1008D000808180688083808187608083ECE7F0E09E
:1008E00080818066808317B80AE710E00F2EF9E751
:1008F0002F2E312CF02D0F2EF8EE8F2EF3E09F2EA1
:10090000F02D0F2EF0E0CF2EF1E0DF2EF02DFE01C6
:1009100031967F010F2EF2E7AF2EB12CF02D0F2E66
:10092000FAE16F2E77247394F02D0F2EF8EC4F2EF2
:1009300055245394F02DF801808180648083F80160
:10094000808186FDFCCFF1018081E8E7F0E0408105
:1009500050E0582B9A013695279536952795369570
:100960002795A5ECB0E20E945005929582958F7074
:1009700089279F708927889D9001899D300D989DBA
:10098000300D1124CA01821B930B9C0136952795CB
:1009900036952795ABE7B4E10E945005969587956B
:1009A0009F938F939A0136952795369527950E94A8
:1009B000500596958795E4E6E89F9001E99F300DF4
:1009C0001124CA01821B930B9C01ADECBCEC0E946C
:1009D00050059695879596958795969587959F93BB
:1009E0008F939A010E9450059695879596958795C5
:1009F000969587959C01220F331F880F991F880FAA
:100A0000991F880F991F820F931F481B590B5F93E3
:100A10004F93DF92CF92FF92EF920E947C050E944B
:100A20005902B0921001A0920F01B70181E00E941B
:100A30005F037092100160920F016AE670E081E03E
:100A40000E945F035092100140920F0168E670E02F
:100A500082E00E945F030E9490039FE7EAE1F6E0D4
:100A60009150E040F040E1F700C000000FB6F8946C
:100A7000DEBF0FBECDBF5FCF97FB072E16F40094ED
:100A800007D077FD09D00E945F0507FC05D03EF432
:100A9000909581959F4F0895709561957F4F08952A
:100AA000A29FB001B39FC001A39F700D811D1124AF
:100AB000911DB29F700D811D1124911D0895AA1BD7
:100AC000BB1B51E107C0AA1FBB1FA617B70710F039
:100AD000A61BB70B881F991F5A95A9F7809590956B
:100AE000BC01CD010895FB01DC0102C005900D920F
:100AF00041505040D8F70895AEE0B0E0E2E8F5E0AC
:100B00000C942B080D891E8986E08C831A83098337
:100B10008FEF9FE79E838D83AE01475E5F4F6F89A6
:100B2000788DCE0101960E949F052F813885F801AE
:100B3000E20FF31F10822E96E4E00C944708ACE01D
:100B4000B0E0E5EAF5E00C941D087C016B018A0138
:100B5000FC0117821682838181FFBDC1CE010196FF
:100B60004C01F7019381F60193FD859193FF8191EB
:100B70006F01882309F4ABC1853239F493FD859167
:100B800093FF81916F01853229F4B70190E00E94B3
:100B90008707E7CF512C312C20E02032A0F48B3294
:100BA00069F030F4803259F0833269F420612CC04E
:100BB0008D3239F0803339F4216026C02260246000
:100BC00023C0286021C027FD27C030ED380F3A3000
:100BD00078F426FF06C0FAE05F9E300D1124532EF4
:100BE00013C08AE0389E300D1124332E20620CC0D1
:100BF0008E3221F426FD6BC1206406C08C3611F4C0
:100C0000206802C0883641F4F60193FD859193FF78
:100C100081916F018111C1CF982F9F7D95549330A1
:100C200028F40C5F1F4FFFE3F9830DC0833631F0CA
:100C3000833771F0833509F05BC022C0F8018081F1
:100C400089830E5F1F4F44244394512C540115C0D7
:100C50003801F2E06F0E711CF801A080B18026FF10
:100C600003C0652D70E002C06FEF7FEFC5012C87D8
:100C70000E947C072C0183012C852F77222E17C020
:100C80003801F2E06F0E711CF801A080B18026FFE0
:100C900003C0652D70E002C06FEF7FEFC5012C87A8
:100CA0000E9471072C012C852068222E830123FCD1
:100CB0001BC0832D90E048165906B0F4B70180E2BE
:100CC00090E00E9487073A94F4CFF50127FC8591C4
:100CD00027FE81915F01B70190E00E9487073110E4
:100CE0003A94F1E04F1A51084114510471F7E5C0EC
:100CF000843611F0893639F5F80127FF07C0608185
:100D00007181828193810C5F1F4F08C06081718166
:100D1000072E000C880B990B0E5F1F4F2F76722E3B
:100D200097FF09C090958095709561957F4F8F4F83
:100D30009F4F2068722E2AE030E0A4010E94BF0776
:100D4000A82EA81844C0853729F42F7EB22E2AE099
:100D500030E025C0F22FF97FBF2E8F36C1F018F496
:100D6000883579F0B4C0803719F0883721F0AFC0EA
:100D70002F2F2061B22EB4FE0DC08B2D8460B82EB3
:100D800009C024FF0AC09F2F9660B92E06C028E034
:100D900030E005C020E130E002C020E132E0F8019F
:100DA000B7FE07C060817181828193810C5F1F4F04
:100DB00006C06081718180E090E00E5F1F4FA4014A
:100DC0000E94BF07A82EA818FB2DFF777F2E76FE66
:100DD0000BC0372D3E7FA51450F474FE0AC072FC80
:100DE00008C0372D3E7E05C0BA2C372D03C0BA2C63
:100DF00001C0B52C34FF0DC0FE01EA0DF11D80814C
:100E0000803311F4397E09C032FF06C0B394B39425
:100E100004C0832F867809F0B39433FD13C030FFEC
:100E200006C05A2CB31418F4530C5B18B32CB3142B
:100E300068F4B70180E290E03C870E948707B39492
:100E40003C85F5CFB31410F43B1801C0312C34FFAE
:100E500012C0B70180E390E03C870E9487073C8581
:100E600032FF17C031FD03C088E790E002C088E57B
:100E700090E0B7010CC0832F867859F031FF02C093
:100E80008BE201C080E237FD8DE2B70190E00E9465
:100E90008707A51438F4B70180E390E00E94870724
:100EA0005A94F7CFAA94F401EA0DF11D8081B7019D
:100EB00090E00E948707A110F5CF332009F451CEAE
:100EC000B70180E290E00E9487073A94F6CFF701DD
:100ED0008681978102C08FEF9FEF2C96E2E10C9400
:100EE0003908FC010590615070400110D8F78095D9
:100EF00090958E0F9F1F0895FC01615070400190E6
:100F00000110D8F7809590958E0F9F1F08950F932D
:100F10001F93CF93DF93FB01238121FD03C08FEF4C
:100F20009FEF28C022FF16C046815781248135815A
:100F30004217530744F4A081B1819D012F5F3F4FB9
:100F4000318320838C93268137812F5F3F4F3783F6
:100F5000268310C0EB01092F182F0084F185E02DA6
:100F60000995892BE1F68E819F8101969F838E835F
:100F7000812F902FDF91CF911F910F910895FA014A
:100F8000AA27283051F1203181F1E8946F936E7FC8
:100F90006E5F7F4F8F4F9F4FAF4FB1E03ED0B4E0B9
:100FA0003CD0670F781F891F9A1FA11D680F791FFA
:100FB0008A1F911DA11D6A0F711D811D911DA11D0B
:100FC00020D009F468943F912AE0269F112430191B
:100FD000305D3193DEF6CF010895462F4770405DB6
:100FE0004193B3E00FD0C9F7F6CF462F4F70405D65
:100FF0004A3318F0495D31FD4052419302D0A9F7C0
:10100000EACFB4E0A6959795879577956795BA95B9
:10101000C9F700976105710508959B01AC010A2E7F
:1010200006945795479537952795BA95C9F7620F56
:10103000731F841F951FA01D08952F923F924F92FA
:101040005F926F927F928F929F92AF92BF92CF9258
:10105000DF92EF92FF920F931F93CF93DF93CDB761
:10106000DEB7CA1BDB0B0FB6F894DEBF0FBECDBFD9
:1010700009942A88398848885F846E847D848C84AA
:101080009B84AA84B984C884DF80EE80FD800C81B3
:101090001B81AA81B981CE0FD11D0FB6F894DEBF96
:0C10A0000FBECDBFED010895F894FFCF06
:0A10AC00256425642E256420000051
:00000001FF
