:100000000C9434000C9446000C9446000C9446006A
:100010000C9499000C9446000C9446000C944600F5
:100020000C9446000C9446000C9446000C94460038
:100030000C9446000C9446000C9446000C94460028
:100040000C9446000C9446000C9446000C94460018
:100050000C9446000C9446000C9446000C94460008
:100060000C9446000C94460011241FBECFEFD8E03C
:10007000DEBFCDBF21E0A0E0B1E001C01D92A23003
:10008000B207E1F70E9474000C940C030C9400007A
:10009000BC01990F880B990B0E94EB0120E030E026
:1000A0004AE754E40E94410120E034E244EF57E47F
:1000B0000E9477029B01AC0160E070E080E897E469
:1000C0000E94D4000E94B301709385006093840065
:1000D0001092800083E080938100B09BFECF10924D
:1000E000810081E086BB089587B1816387B984B1BF
:1000F0008FEF84B9549814BC87E085BD16BCE8E640
:10010000F0E0808182608083D99AECE6F0E0808123
:10011000816080837894409889E190E00E94480053
:10012000409A86B58F5F85B989E190E00E944800CA
:10013000F2CF1F920F920FB60F9211245F936F931D
:100140007F938F939F93AF93BF93409B21C08091E8
:1001500000019091010101969093010180930001AB
:1001600065E070E00E94E402892B21F498B180E1FF
:10017000892788B980910001909101016AE070E0BF
:100180000E94E402892B21F498B180E2892788B982
:10019000BF91AF919F918F917F916F915F910F90E0
:1001A0000FBE0F901F9018955058BB27AA270E948A
:1001B000EC000C943D020E942F0238F00E9436029F
:1001C00020F039F49F3F19F426F40C942C020EF41D
:1001D000E095E7FB0C942602E92F0E944E0258F3AB
:1001E000BA17620773078407950720F079F4A6F51C
:1001F0000C9470020EF4E0950B2EBA2FA02D0B017B
:10020000B90190010C01CA01A0011124FF27591B5B
:1002100099F0593F50F4503E68F11A16F040A22F61
:10022000232F342F4427585FF3CF469537952795D2
:10023000A795F0405395C9F77EF41F16BA0B620BD1
:10024000730B840BBAF09150A1F0FF0FBB1F661F18
:10025000771F881FC2F70EC0BA0F621F731F841F5B
:1002600048F4879577956795B795F7959E3F08F081
:10027000B0CF9395880F08F09927EE0F9795879543
:1002800008950E9455010C943D020E94360258F0D8
:100290000E942F0240F029F45F3F29F00C942602BF
:1002A00051110C9471020C942C020E944E0268F3BE
:1002B0009923B1F3552391F3951B550BBB27AA271F
:1002C00062177307840738F09F5F5F4F220F331F59
:1002D000441FAA1FA9F335D00E2E3AF0E0E832D021
:1002E00091505040E695001CCAF72BD0FE2F29D024
:1002F000660F771F881FBB1F261737074807AB07F6
:10030000B0E809F0BB0B802DBF01FF2793585F4F6A
:100310003AF09E3F510578F00C9426020C9471023D
:100320005F3FE4F3983ED4F3869577956795B7954C
:10033000F7959F5FC9F7880F911D9695879597F957
:100340000895E1E0660F771F881FBB1F62177307D0
:100350008407BA0720F0621B730B840BBA0BEE1FE5
:1003600088F7E09508950E94BA016894B1110C9441
:10037000710208950E94560288F09F5798F0B92F95
:100380009927B751B0F0E1F0660F771F881F991FCA
:100390001AF0BA95C9F714C0B13091F00E947002FA
:1003A000B1E008950C947002672F782F8827B85F0A
:1003B00039F0B93FCCF3869577956795B395D9F722
:1003C0003EF490958095709561957F4F8F4F9F4F2C
:1003D0000895E89409C097FB3EF490958095709538
:1003E00061957F4F8F4F9F4F9923A9F0F92F96E981
:1003F000BB279395F695879577956795B795F111F6
:10040000F8CFFAF4BB0F11F460FF1BC06F5F7F4F92
:100410008F4F9F4F16C0882311F096E911C07723A4
:1004200021F09EE8872F762F05C0662371F096E8AD
:10043000862F70E060E02AF09A95660F771F881F7C
:10044000DAF7880F9695879597F9089597F99F673A
:1004500080E870E060E008959FEF80EC089500244C
:100460000A941616170618060906089500240A9419
:1004700012161306140605060895092E0394000C9F
:1004800011F4882352F0BB0F40F4BF2B11F460FF2E
:1004900004C06F5F7F4F8F4F9F4F089557FD905857
:1004A000440F551F59F05F3F71F04795880F97FB38
:1004B000991F61F09F3F79F08795089512161306F2
:1004C0001406551FF2CF4695F1DF08C01616170621
:1004D0001806991FF1CF8695710561050894089556
:1004E000E894BB2766277727CB0197F908950E94E8
:1004F0008A020C943D020E942F0238F00E943602BC
:1005000020F0952311F00C9426020C942C02112457
:100510000C9471020E944E0270F3959FC1F3950FE7
:1005200050E0551F629FF001729FBB27F00DB11D77
:10053000639FAA27F00DB11DAA1F649F6627B00D07
:10054000A11D661F829F2227B00DA11D621F739FF0
:10055000B00DA11D621F839FA00D611D221F749FFE
:100560003327A00D611D231F849F600D211D822F45
:10057000762F6A2F11249F5750409AF0F1F088236C
:100580004AF0EE0FFF1FBB1F661F771F881F915099
:100590005040A9F79E3F510580F00C9426020C9420
:1005A00071025F3FE4F3983ED4F3869577956795A3
:1005B000B795F795E7959F5FC1F7FE2B880F911DC3
:1005C0009695879597F9089597FB072E16F4009452
:1005D00007D077FD09D00E94F80207FC05D03EF451
:1005E000909581959F4F0895709561957F4F0895DF
:1005F000AA1BBB1B51E107C0AA1FBB1FA617B70749
:1006000010F0A61BB70B881F991F5A95A9F7809564
:0C0610009095BC01CD010895F894FFCF37
:00000001FF
