:100000000C9434000C943E000C943E000C943E0082
:100010000C943E000C943E000C943E000C943E0068
:100020000C943E000C943E000C943E000C943E0058
:100030000C943E000C943E000C943E000C943E0048
:100040000C943E000C943E000C943E000C943E0038
:100050000C943E000C943E000C943E000C943E0028
:100060000C943E000C943E0011241FBECFEFD8E04C
:10007000DEBFCDBF0E94CA000C940A010C940000A0
:1000800087B5863E78F487B5815F87BD2FEF80E71F
:1000900092E0215080409040E1F700C0000087B519
:1000A000863E88F308958091B300863E88F4E3EBA2
:1000B000F0E08081815F80832FEF80E792E0215024
:1000C00080409040E1F700C000008081863E88F3C8
:1000D00008958091880090918900863E9105A8F44A
:1000E000E8E8F0E0808191810F96918380832FEF83
:1000F00080E792E0215080409040E1F700C000008E
:1001000080819181863E910568F3089587B58A3193
:1001100078F087B58F5087BD2FEF80E792E02150B0
:1001200080409040E1F700C0000087B58A3188F731
:1001300008958091B3008A3188F0E3EBF0E080818C
:100140008F5080832FEF80E792E0215080409040D5
:10015000E1F700C0000080818A3188F7089580911E
:100160008800909189004A97A0F0E8E8F0E080814B
:1001700091810F97918380832FEF80E792E0215048
:1001800080409040E1F700C00000808191814A9753
:1001900070F70895569A84B18A6084B984B58368EB
:1001A00084BDE0E8F0E0808181688083E1E8F0E0F0
:1001B000808188608083A0EBB0E08C9183688C9311
:1001C00085B5816085BD808181608083E1EBF0E051
:1001D00080818160808389E187BD29E130E03093AF
:1001E0008900209388008093B3000E9440000E9401
:1001F00069000E9453000E9486000E9499000E949C
:1002000040000E9453000E94AF000E9486000E949E
:080210009900EBCFF894FFCF39
:00000001FF
